:100000000C944E000C946D000C946D000C946D00DB
:100010000C946D000C946D000C946D000C946D00AC
:100020000C946D000C946D000C946D000C946D009C
:100030000C946D000C946D000C946D000C946D008C
:100040000C946D000C946D000C946D000C946D007C
:100050000C946D000C946D000C946D000C946D006C
:100060000C946D000C946D000C946D000C946D005C
:100070000C946D000C946D000C946D000C946D004C
:100080000C946D000C946D000C946D002001120115
:100090005E0165012E018C016C017C0111241FBEE3
:1000A000CFEFD0E4DEBFCDBF11E0A0E0B1E0E2ECE5
:1000B000F6E000E00BBF02C007900D92AE32B10730
:1000C000D9F711E0AEE2B1E001C01D92A633B1074D
:1000D000E1F70E94CD010C945F030C940000CF93D4
:1000E000C82F8A3019F48DE00E946F009091C000F3
:1000F00095FFFCCFC093C60080E090E0CF910895BB
:10010000CF92DF92EF92FF926B017C012091300140
:100110003091310140913201509133010E94E6014A
:10012000882309F458C020E030E0A901C701B601D6
:100130000E94E601811106C0E1E9F0E0808188704B
:10014000808305C0E1E9F0E080818360808328E559
:1001500039E344E75FE3C701B6010E94E601882363
:100160003CF48FEF9FEF909399008093980027C005
:1001700020E034E244EF56E4C701B6010E94F802E1
:1001800018162CF4109299001092980018C020E0D4
:1001900030E040E053E4C701B6010E94FC029B013D
:1001A000AC0160E074E284EF9AE40E94EA010E94EC
:1001B00052026150710970939900609398001092F7
:1001C000950010929400C0923001D0923101E092DB
:1001D0003201F0923301FF90EF90DF90CF900895BD
:1001E00080E4809390008BE08093910060E070E069
:1001F000CB010E948000089510929000109291000F
:10020000089580B18095877080932F01E09134012B
:10021000F0913501E830F10508F08BC0EA5BFF4F43
:100220000C94DD01813029F41092350110923401D3
:1002300080C081E090E0909335018093340179C0D3
:10024000813029F4109235011092340172C084E09B
:1002500090E090933501809334016BC0823071F44B
:1002600080912E01873018F48F5F80932E0182E0F9
:1002700090E090933501809334015BC0843071F439
:1002800080912E01882319F0815080932E0183E004
:1002900090E090933501809334014BC0813039F464
:1002A00085E090E0909335018093340142C084E072
:1002B00090E090933501809334013BC086E090E05C
:1002C000909335018093340134C087E090E090939F
:1002D0003501809334012DC0823039F486E090E0FE
:1002E000909335018093340124C084E090E0909392
:1002F0003501809334011DC0843039F487E090E0EB
:10030000909335018093340114C084E090E0909381
:100310003501809334010DC0813029F010923501F0
:100320001092340106C085E090E0909335018093EF
:10033000340180913401909135018130910539F07B
:1003400048F08230910549F00397B9F008950E9472
:10035000FC0008950E94F0000895E0912E01F0E065
:10036000EE0FFF1FEE0FFF1FE25FFE4F60817181F6
:10037000828193810E9480000895E0912E01F0E037
:10038000EE0FFF1FEE0FFF1FE25FFE4F60817181D6
:10039000828193810E948000089511B88FEF82B905
:1003A00084B915B80E94F00081E090E09093350187
:1003B000809334010E940101FDCFEE0FFF1F002446
:1003C000001C0BBE0790F691E02D09949CD008F418
:1003D00081E008950CD0D2C0CAD040F0C1D030F036
:1003E00021F45F3F19F0B3C05111FCC0B6C0D7D0A3
:1003F00098F39923C9F35523B1F3951B550BBB27EC
:10040000AA2762177307840738F09F5F5F4F220F98
:10041000331F441FAA1FA9F333D00E2E3AF0E0E891
:1004200030D091505040E695001CCAF729D0FE2FDD
:1004300027D0660F771F881FBB1F2617370748076F
:10044000AB07B0E809F0BB0B802DBF01FF27935825
:100450005F4F2AF09E3F510568F079C0C3C05F3FEF
:10046000ECF3983EDCF3869577956795B795F7950D
:100470009F5FC9F7880F911D9695879597F9089505
:10048000E1E0660F771F881FBB1F621773078407A1
:10049000BA0720F0621B730B840BBA0BEE1F88F7B0
:1004A000E095089504D06894B1119CC008957FD060
:1004B00088F09F5790F0B92F9927B751A0F0D1F04D
:1004C000660F771F881F991F1AF0BA95C9F712C0D7
:1004D000B13081F086D0B1E0089583C0672F782FC6
:1004E0008827B85F39F0B93FCCF386957795679543
:1004F000B395D9F73EF490958095709561957F4FAF
:100500008F4F9F4F0895990F0008550FAA0BE0E8F1
:10051000FEEF16161706E807F907C0F012161306C5
:10052000E407F50798F0621B730B840B950B39F405
:100530000A2661F0232B242B252B21F408950A266B
:1005400009F4A140A6958FEF811D811D089597F9AB
:100550009F6780E870E060E008959FEF80EC089569
:1005600000240A9416161706180609060895002492
:100570000A9412161306140605060895092E03940C
:10058000000C11F4882352F0BB0F40F4BF2B11F480
:1005900060FF04C06F5F7F4F8F4F9F4F089557FDDF
:1005A0009058440F551F59F05F3F71F04795880FE1
:1005B00097FB991F61F09F3F79F087950895121678
:1005C00013061406551FF2CF4695F1DF08C0161624
:1005D00017061806991FF1CF8695710561050894D5
:1005E0000895E894BB2766277727CB0197F90895EC
:1005F0008ADF08F48FEF08950BD0C0CFB1DF28F069
:10060000B6DF18F0952309F0A2CFA7CF1124EACFC7
:10061000C6DFA0F3959FD1F3950F50E0551F629F61
:10062000F001729FBB27F00DB11D639FAA27F00D4B
:10063000B11DAA1F649F6627B00DA11D661F829F72
:100640002227B00DA11D621F739FB00DA11D621F57
:10065000839FA00D611D221F749F3327A00D611D74
:10066000231F849F600D211D822F762F6A2F112456
:100670009F5750408AF0E1F088234AF0EE0FFF1FA9
:10068000BB1F661F771F881F91505040A9F79E3FE0
:10069000510570F05CCFA6CF5F3FECF3983EDCF3E2
:1006A000869577956795B795F795E7959F5FC1F71D
:1006B000FE2B880F911D9695879597F90895F894CC
:0206C000FFCF6A
:1006C20000000002000000006F0000000000A4D043
:1006D20082437BD49243A4D0A443719DAE430000D5
:0E06E200C4430000DC43A4F0F64300D0024401
:00000001FF
